{
  "address": "0xBCc45e457Dc52B76CBcebfc1Ff2a85963FE9C141",
  "abi": [
    {
      "inputs": [
        {
          "internalType": "uint256[2]",
          "name": "_ins",
          "type": "uint256[2]"
        },
        {
          "internalType": "uint256",
          "name": "_k",
          "type": "uint256"
        }
      ],
      "name": "MiMC5Sponge",
      "outputs": [
        {
          "internalType": "uint256",
          "name": "h",
          "type": "uint256"
        }
      ],
      "stateMutability": "view",
      "type": "function"
    }
  ],
  "transactionHash": "0x05c970aee90f9632206cbc01b7cfd100185a010f1b503df4ffd7836c07825970",
  "args": [],
  "numDeployments": 1,
  "solcInputHash": "2952435429d325c43891bc96fab7531e",
  "bytecode": "0x60806040527f30644e72e131a029b85045b68181585d2833e84879b9709143e1f593f0000001600055604051806102800160405280600081526020017f391768a085a953882c2200e315dc6b6353e4791466d524980f97b786716ef44c81526020017f9d4f50cb64b2c7a8f7b2c17065bac3a4ef451cd9718db14693cc75cbb863089081526020017f71504526d8cd57565fca39e86feeb52100fecb23f9b81ab0ac066aef68328e3e81526020017f935b8800cf73aa9b083a4bdbfea0f4efeb5e0b1bb927455b4bc8a4bcc58e9a6681526020017f65731fa0feccca6cba08c176f5443dbaea0de6ae20993a97f6b709785897d20f81526020017f1fd61c6b69084af504ea1fa012821bb4af507d64efd9934b9bbf36705290f12d81526020017f40f253aa05d71624fe6759a1f5edd323d110996b3fcfba07abdf171a5f9de39981526020017f1e70e5f07fda6b0119e5c8f11aa869db08e948e2bc688cb4db0b4ee543c46f3e81526020017f790b360b1e8223e3834cfd88dd07eb3e4fb59e8bd83626fbdc9583d8877a15af81526020017f37a0de4d2c56628d40f1638628efb49c4c741fe881cf8a6e865ec71688b4487a81526020017fc7cb9fe85afe2450c4da8a32983cc0e6070d253c86e59bfd1fd24fcaa91c658a81526020017fcb6e8649b6a56e9277be3bf1d943244b79048284cdd78743a74863e58b9e198781526020017f594448aa40d994274590a8a5c4ab87b374317b4bbc013841ce844e4bf19805bb81526020017f01ff873d84b64b0d73eddd73625d1b5686a3d1f31db8d0086b3101bdb5a6f7ff81526020017ff810e1e9fad9cdb55d70a243eccd090c85f836ce991bb2190b0f0aab32d8e0b381526020017ffdcf72e9d11d20a02478305a7183c50ed3ddde3c9e80b2bf5efdaca8f87d651d81526020017ff66144aed21cec88adbe8c8f6cd05ee5407d8c06d39607d62584909149d3403c81526020017f8fa16e2ad5a7a87d70003c61c1d2a08fc9ab669e6b95350f28e01a15745c274581526020017fd99c9018257d4ec8c901b111feb6857c4219c3340ac68bf54ce4448a530375f9815250600190601461031b92919061032e565b5034801561032857600080fd5b5061038b565b826014810192821561035d579160200282015b8281111561035c578251825591602001919060010190610341565b5b50905061036a919061036e565b5090565b5b8082111561038757600081600090555060010161036f565b5090565b6104bd8061039a6000396000f3fe608060405234801561001057600080fd5b506004361061002b5760003560e01c8063d622e5a414610030575b600080fd5b61004a6004803603810190610045919061035a565b610060565b60405161005791906103a9565b60405180910390f35b600080600090506000805b60028160ff1610156100cd5760005480610088576100876103c4565b5b868260ff166002811061009e5761009d6103f3565b5b6020020151840892506100b28383876100d9565b809350819450505080806100c59061045e565b91505061006b565b50819250505092915050565b6000806000601490506000869050600086905060008060008060005b8760ff168160ff1610156101b85760005480610114576101136103c4565b5b8b870894506000548061012a576101296103c4565b5b60018260ff1660148110610141576101406103f3565b5b01548608945060005480610158576101576103c4565b5b85860993506000548061016e5761016d6103c4565b5b848509925060005480610184576101836103c4565b5b85840994508591506000548061019d5761019c6103c4565b5b858808955081965080806101b09061045e565b9150506100f5565b5085859850985050505050505050935093915050565b6000604051905090565b600080fd5b600080fd5b6000601f19601f8301169050919050565b7f4e487b7100000000000000000000000000000000000000000000000000000000600052604160045260246000fd5b61022b826101e2565b810181811067ffffffffffffffff8211171561024a576102496101f3565b5b80604052505050565b600061025d6101ce565b90506102698282610222565b919050565b600067ffffffffffffffff821115610289576102886101f3565b5b602082029050919050565b600080fd5b6000819050919050565b6102ac81610299565b81146102b757600080fd5b50565b6000813590506102c9816102a3565b92915050565b60006102e26102dd8461026e565b610253565b905080602084028301858111156102fc576102fb610294565b5b835b81811015610325578061031188826102ba565b8452602084019350506020810190506102fe565b5050509392505050565b600082601f830112610344576103436101dd565b5b60026103518482856102cf565b91505092915050565b60008060608385031215610371576103706101d8565b5b600061037f8582860161032f565b9250506040610390858286016102ba565b9150509250929050565b6103a381610299565b82525050565b60006020820190506103be600083018461039a565b92915050565b7f4e487b7100000000000000000000000000000000000000000000000000000000600052601260045260246000fd5b7f4e487b7100000000000000000000000000000000000000000000000000000000600052603260045260246000fd5b7f4e487b7100000000000000000000000000000000000000000000000000000000600052601160045260246000fd5b600060ff82169050919050565b600061046982610451565b915060ff820361047c5761047b610422565b5b60018201905091905056fea26469706673582212201d362f44cbac05818aba870997b77faa45350605d6e82cfde3daaae31c6ea0e464736f6c63430008110033",
  "devdoc": {
    "kind": "dev",
    "methods": {},
    "version": 1
  },
  "userdoc": {
    "kind": "user",
    "methods": {},
    "version": 1
  },
  "storageLayout": {
    "storage": [
      {
        "astId": 4,
        "contract": "contracts/MiMCSponge.sol:Hasher",
        "label": "p",
        "offset": 0,
        "slot": "0",
        "type": "t_uint256"
      },
      {
        "astId": 29,
        "contract": "contracts/MiMCSponge.sol:Hasher",
        "label": "c",
        "offset": 0,
        "slot": "1",
        "type": "t_array(t_uint256)20_storage"
      }
    ],
    "types": {
      "t_array(t_uint256)20_storage": {
        "base": "t_uint256",
        "encoding": "inplace",
        "label": "uint256[20]",
        "numberOfBytes": "640"
      },
      "t_uint256": {
        "encoding": "inplace",
        "label": "uint256",
        "numberOfBytes": "32"
      }
    }
  }
}