{
  "address": "0x4C603B194e9Ad83028307FE05f8F41b93D6687df",
  "abi": [
    {
      "inputs": [
        {
          "internalType": "address",
          "name": "_hasher",
          "type": "address"
        },
        {
          "internalType": "address",
          "name": "verifierAddress",
          "type": "address"
        }
      ],
      "stateMutability": "nonpayable",
      "type": "constructor"
    },
    {
      "anonymous": false,
      "inputs": [
        {
          "indexed": false,
          "internalType": "uint256",
          "name": "root",
          "type": "uint256"
        },
        {
          "indexed": false,
          "internalType": "uint256[10]",
          "name": "hashingPairings",
          "type": "uint256[10]"
        },
        {
          "indexed": false,
          "internalType": "uint8[10]",
          "name": "pairDirection",
          "type": "uint8[10]"
        }
      ],
      "name": "Deposit",
      "type": "event"
    },
    {
      "anonymous": false,
      "inputs": [
        {
          "indexed": false,
          "internalType": "address",
          "name": "to",
          "type": "address"
        },
        {
          "indexed": false,
          "internalType": "uint256",
          "name": "nullifierhash",
          "type": "uint256"
        }
      ],
      "name": "Withdrawal",
      "type": "event"
    },
    {
      "inputs": [
        {
          "internalType": "uint256",
          "name": "",
          "type": "uint256"
        }
      ],
      "name": "commitments",
      "outputs": [
        {
          "internalType": "bool",
          "name": "",
          "type": "bool"
        }
      ],
      "stateMutability": "view",
      "type": "function"
    },
    {
      "inputs": [],
      "name": "denomination",
      "outputs": [
        {
          "internalType": "uint256",
          "name": "",
          "type": "uint256"
        }
      ],
      "stateMutability": "view",
      "type": "function"
    },
    {
      "inputs": [
        {
          "internalType": "uint256",
          "name": "_commitment",
          "type": "uint256"
        }
      ],
      "name": "deposit",
      "outputs": [],
      "stateMutability": "payable",
      "type": "function"
    },
    {
      "inputs": [],
      "name": "nextLeafIdx",
      "outputs": [
        {
          "internalType": "uint256",
          "name": "",
          "type": "uint256"
        }
      ],
      "stateMutability": "view",
      "type": "function"
    },
    {
      "inputs": [
        {
          "internalType": "uint256",
          "name": "",
          "type": "uint256"
        }
      ],
      "name": "nulliferHashes",
      "outputs": [
        {
          "internalType": "bool",
          "name": "",
          "type": "bool"
        }
      ],
      "stateMutability": "view",
      "type": "function"
    },
    {
      "inputs": [
        {
          "internalType": "uint256",
          "name": "",
          "type": "uint256"
        }
      ],
      "name": "roots",
      "outputs": [
        {
          "internalType": "bool",
          "name": "",
          "type": "bool"
        }
      ],
      "stateMutability": "view",
      "type": "function"
    },
    {
      "inputs": [],
      "name": "treeLevel",
      "outputs": [
        {
          "internalType": "uint8",
          "name": "",
          "type": "uint8"
        }
      ],
      "stateMutability": "view",
      "type": "function"
    },
    {
      "inputs": [
        {
          "internalType": "uint256[2]",
          "name": "a",
          "type": "uint256[2]"
        },
        {
          "internalType": "uint256[2][2]",
          "name": "b",
          "type": "uint256[2][2]"
        },
        {
          "internalType": "uint256[2]",
          "name": "c",
          "type": "uint256[2]"
        },
        {
          "internalType": "uint256[2]",
          "name": "input",
          "type": "uint256[2]"
        }
      ],
      "name": "withdraw",
      "outputs": [],
      "stateMutability": "nonpayable",
      "type": "function"
    }
  ],
  "transactionHash": "0x79420548d9cdbfc843b47a39cc7ecdd11e24e9f43ccdc6298291bae77bc32660",
  "args": [
    "0xBCc45e457Dc52B76CBcebfc1Ff2a85963FE9C141",
    "0xf41b6C5010bcA3e661276eF943ddf346EB7159d3"
  ],
  "numDeployments": 1,
  "solcInputHash": "2952435429d325c43891bc96fab7531e",
  "bytecode": "0x6080604052600a600260146101000a81548160ff021916908360ff16021790555066038d7ea4c6800060035560006004556040518061014001604052807f33418cd1669b4e7f4bf473ec2db9a489b3d6f9f11b91d0b3b6004432ab53d60b81526020017f350ffb7c45ccf8940c163b192252495b614def57272b6f8d9a53a5b3e44ef8bd81526020017fc8acb7af851baf91a82b1ad46b01ac506ce80387170890dea377d21e8520258481526020017f5171d273154b2764aa5903210e16bd1899b18648d1358d41887a113227e9acc581526020017f986c06cb04d613f57cf7a1da410e0f22c794e1ec1ae125898cfc9662a5e5be5981526020017f6eb9a05106eff3031621027680204b2e9326b0e5191bd62f3cd7bf7f6d94d02781526020017fa1cbc8691493398c061f547b4882edbb6a38ce1730c8a2605e9d8138d4ad122681526020017f850aa72f3d8bc65181e9c29d76f7614e2f939ade9442abac29fc8a0329deeffd81526020017fe9c6f678752dbfc89028bf8b9b1cce608b34b742b75fbae878ec2c6ae803dc1e81526020017fa9e22c2e1f4531bc4389032bb472b97c25a7298d27ba4fefd75439a1be46f77f815250600990600a620001c89291906200028e565b50348015620001d657600080fd5b5060405162001abf38038062001abf8339818101604052810190620001fc91906200035c565b600160008190555081600260006101000a81548173ffffffffffffffffffffffffffffffffffffffff021916908373ffffffffffffffffffffffffffffffffffffffff16021790555080600160006101000a81548173ffffffffffffffffffffffffffffffffffffffff021916908373ffffffffffffffffffffffffffffffffffffffff1602179055505050620003a3565b82600a8101928215620002c0579160200282015b82811115620002bf578251825591602001919060010190620002a2565b5b509050620002cf9190620002d3565b5090565b5b80821115620002ee576000816000905550600101620002d4565b5090565b600080fd5b600073ffffffffffffffffffffffffffffffffffffffff82169050919050565b60006200032482620002f7565b9050919050565b620003368162000317565b81146200034257600080fd5b50565b60008151905062000356816200032b565b92915050565b60008060408385031215620003765762000375620002f2565b5b6000620003868582860162000345565b9250506020620003998582860162000345565b9150509250929050565b61170c80620003b36000396000f3fe60806040526004361061007b5760003560e01c8063b8e795641161004e578063b8e795641461012f578063c2b40ae41461015a578063c78784d714610197578063dee98e51146101c05761007b565b806345e0523f1461008057806349ce8997146100ab5780638bca6d16146100e8578063b6b55f2514610113575b600080fd5b34801561008c57600080fd5b506100956101fd565b6040516100a29190610a9a565b60405180910390f35b3480156100b757600080fd5b506100d260048036038101906100cd9190610ae6565b610203565b6040516100df9190610b2e565b60405180910390f35b3480156100f457600080fd5b506100fd610223565b60405161010a9190610a9a565b60405180910390f35b61012d60048036038101906101289190610ae6565b610229565b005b34801561013b57600080fd5b506101446105fd565b6040516101519190610b65565b60405180910390f35b34801561016657600080fd5b50610181600480360381019061017c9190610ae6565b610610565b60405161018e9190610b2e565b60405180910390f35b3480156101a357600080fd5b506101be60048036038101906101b99190610bc9565b610630565b005b3480156101cc57600080fd5b506101e760048036038101906101e29190610ae6565b6109c3565b6040516101f49190610b2e565b60405180910390f35b60045481565b60086020528060005260406000206000915054906101000a900460ff1681565b60035481565b6102316109e3565b6003543414610275576040517f08c379a000000000000000000000000000000000000000000000000000000000815260040161026c90610c8f565b60405180910390fd5b6008600082815260200190815260200160002060009054906101000a900460ff16156102d6576040517f08c379a00000000000000000000000000000000000000000000000000000000081526004016102cd90610cfb565b60405180910390fd5b600260149054906101000a900460ff1660026102f29190610e7d565b60045410610335576040517f08c379a000000000000000000000000000000000000000000000000000000000815260040161032c90610f3a565b60405180910390fd5b600061033f610a3c565b610347610a3c565b60006004549050600080600087905061035e610a5f565b60005b600260149054906101000a900460ff1660ff1681101561057457600060028761038a9190610f89565b036103ff57829450600981600a81106103a6576103a5610fba565b5b0154935060008782600a81106103bf576103be610fba565b5b602002018181525050600981600a81106103dc576103db610fba565b5b01548882600a81106103f1576103f0610fba565b5b60200201818152505061046b565b829350600981600a811061041657610415610fba565b5b0154945060018782600a811061042f5761042e610fba565b5b602002018181525050600981600a811061044c5761044b610fba565b5b01548882600a811061046157610460610fba565b5b6020020181815250505b84826000600281106104805761047f610fba565b5b602002018181525050838260016002811061049e5761049d610fba565b5b6020020181815250506000600260009054906101000a900473ffffffffffffffffffffffffffffffffffffffff1673ffffffffffffffffffffffffffffffffffffffff1663d622e5a4620249f0858e6040518463ffffffff1660e01b815260040161050a929190611094565b6020604051808303818786fa158015610527573d6000803e3d6000fd5b50505050506040513d601f19601f8201168201806040525081019061054c91906110d2565b905060028761055b91906110ff565b965080935050808061056c90611130565b915050610361565b508197506001600560008a815260200190815260200160002060006101000a81548160ff0219169083151502179055506001600460008282546105b79190611178565b925050819055506001600860008b815260200190815260200160002060006101000a81548160ff02191690831515021790555050505050505050506105fa610a32565b50565b600260149054906101000a900460ff1681565b60056020528060005260406000206000915054906101000a900460ff1681565b6106386109e3565b60008160006002811061064e5761064d610fba565b5b6020020135905060008260016002811061066b5761066a610fba565b5b6020020135905060003373ffffffffffffffffffffffffffffffffffffffff1690506005600084815260200190815260200160002060009054906101000a900460ff166106ed576040517f08c379a00000000000000000000000000000000000000000000000000000000081526004016106e4906111f8565b60405180910390fd5b6007600083815260200190815260200160002060009054906101000a900460ff161561074e576040517f08c379a000000000000000000000000000000000000000000000000000000000815260040161074590611264565b60405180910390fd5b6000600160009054906101000a900473ffffffffffffffffffffffffffffffffffffffff1673ffffffffffffffffffffffffffffffffffffffff168888886040518060600160405280898152602001888152602001878152506040516024016107ba94939291906113e0565b6040516020818303038152906040526311479fea60e01b6020820180517bffffffffffffffffffffffffffffffffffffffffffffffffffffffff838183161783525050505060405161080c9190611498565b6000604051808303816000865af19150503d8060008114610849576040519150601f19603f3d011682016040523d82523d6000602084013e61084e565b606091505b5050905080610892576040517f08c379a0000000000000000000000000000000000000000000000000000000008152600401610889906114fb565b60405180910390fd5b60016007600085815260200190815260200160002060006101000a81548160ff021916908315150217905550600033905060008173ffffffffffffffffffffffffffffffffffffffff16600354611388906040516108ef90611541565b600060405180830381858888f193505050503d806000811461092d576040519150601f19603f3d011682016040523d82523d6000602084013e610932565b606091505b5050905080610976576040517f08c379a000000000000000000000000000000000000000000000000000000000815260040161096d906115a2565b60405180910390fd5b7f7fcf532c15f0a6db0bd6d0e038bea71d30d808c7d98cb3bf7268a95bf5081b6582866040516109a7929190611641565b60405180910390a15050505050506109bd610a32565b50505050565b60076020528060005260406000206000915054906101000a900460ff1681565b600260005403610a28576040517f08c379a0000000000000000000000000000000000000000000000000000000008152600401610a1f906116b6565b60405180910390fd5b6002600081905550565b6001600081905550565b604051806101400160405280600a90602082028036833780820191505090505090565b6040518060400160405280600290602082028036833780820191505090505090565b6000819050919050565b610a9481610a81565b82525050565b6000602082019050610aaf6000830184610a8b565b92915050565b600080fd5b610ac381610a81565b8114610ace57600080fd5b50565b600081359050610ae081610aba565b92915050565b600060208284031215610afc57610afb610ab5565b5b6000610b0a84828501610ad1565b91505092915050565b60008115159050919050565b610b2881610b13565b82525050565b6000602082019050610b436000830184610b1f565b92915050565b600060ff82169050919050565b610b5f81610b49565b82525050565b6000602082019050610b7a6000830184610b56565b92915050565b600080fd5b600081905082602060020282011115610ba157610ba0610b80565b5b92915050565b600081905082604060020282011115610bc357610bc2610b80565b5b92915050565b6000806000806101408587031215610be457610be3610ab5565b5b6000610bf287828801610b85565b9450506040610c0387828801610ba7565b93505060c0610c1487828801610b85565b925050610100610c2687828801610b85565b91505092959194509250565b600082825260208201905092915050565b7f496e636f72726563742064656e6f6d696e6174696f6e206f6620455448000000600082015250565b6000610c79601d83610c32565b9150610c8482610c43565b602082019050919050565b60006020820190508181036000830152610ca881610c6c565b9050919050565b7f4475706c696361746520616374696f6e00000000000000000000000000000000600082015250565b6000610ce5601083610c32565b9150610cf082610caf565b602082019050919050565b60006020820190508181036000830152610d1481610cd8565b9050919050565b7f4e487b7100000000000000000000000000000000000000000000000000000000600052601160045260246000fd5b60008160011c9050919050565b6000808291508390505b6001851115610da157808604811115610d7d57610d7c610d1b565b5b6001851615610d8c5780820291505b8081029050610d9a85610d4a565b9450610d61565b94509492505050565b600082610dba5760019050610e76565b81610dc85760009050610e76565b8160018114610dde5760028114610de857610e17565b6001915050610e76565b60ff841115610dfa57610df9610d1b565b5b8360020a915084821115610e1157610e10610d1b565b5b50610e76565b5060208310610133831016604e8410600b8410161715610e4c5782820a905083811115610e4757610e46610d1b565b5b610e76565b610e598484846001610d57565b92509050818404811115610e7057610e6f610d1b565b5b81810290505b9392505050565b6000610e8882610a81565b9150610e9383610b49565b9250610ec07fffffffffffffffffffffffffffffffffffffffffffffffffffffffffffffffff8484610daa565b905092915050565b7f43616e6e6f74206465706f736974206d65726b6c65207472656520697320667560008201527f6c6c000000000000000000000000000000000000000000000000000000000000602082015250565b6000610f24602283610c32565b9150610f2f82610ec8565b604082019050919050565b60006020820190508181036000830152610f5381610f17565b9050919050565b7f4e487b7100000000000000000000000000000000000000000000000000000000600052601260045260246000fd5b6000610f9482610a81565b9150610f9f83610a81565b925082610faf57610fae610f5a565b5b828206905092915050565b7f4e487b7100000000000000000000000000000000000000000000000000000000600052603260045260246000fd5b600060029050919050565b600081905092915050565b6000819050919050565b61101281610a81565b82525050565b60006110248383611009565b60208301905092915050565b6000602082019050919050565b61104681610fe9565b6110508184610ff4565b925061105b82610fff565b8060005b8381101561108c5781516110738782611018565b965061107e83611030565b92505060018101905061105f565b505050505050565b60006060820190506110a9600083018561103d565b6110b66040830184610a8b565b9392505050565b6000815190506110cc81610aba565b92915050565b6000602082840312156110e8576110e7610ab5565b5b60006110f6848285016110bd565b91505092915050565b600061110a82610a81565b915061111583610a81565b92508261112557611124610f5a565b5b828204905092915050565b600061113b82610a81565b91507fffffffffffffffffffffffffffffffffffffffffffffffffffffffffffffffff820361116d5761116c610d1b565b5b600182019050919050565b600061118382610a81565b915061118e83610a81565b92508282019050808211156111a6576111a5610d1b565b5b92915050565b7f6e6f2d726f6f7400000000000000000000000000000000000000000000000000600082015250565b60006111e2600783610c32565b91506111ed826111ac565b602082019050919050565b60006020820190508181036000830152611211816111d5565b9050919050565b7f43616e6e6f742077697468647261772074776963650000000000000000000000600082015250565b600061124e601583610c32565b915061125982611218565b602082019050919050565b6000602082019050818103600083015261127d81611241565b9050919050565b82818337505050565b61129960408383611284565b5050565b600060029050919050565b600081905092915050565b6000819050919050565b6112c960408383611284565b5050565b60006112d983836112bd565b60408301905092915050565b600082905092915050565b6000604082019050919050565b6113068161129d565b61131081846112a8565b925061131b826112b3565b8060005b838110156113545761133182846112e5565b61133b87826112cd565b9650611346836112f0565b92505060018101905061131f565b505050505050565b600060039050919050565b600081905092915050565b6000819050919050565b6000602082019050919050565b6113928161135c565b61139c8184611367565b92506113a782611372565b8060005b838110156113d85781516113bf8782611018565b96506113ca8361137c565b9250506001810190506113ab565b505050505050565b6000610160820190506113f6600083018761128d565b61140360408301866112fd565b61141060c083018561128d565b61141e610100830184611389565b95945050505050565b600081519050919050565b600081905092915050565b60005b8381101561145b578082015181840152602081019050611440565b60008484015250505050565b600061147282611427565b61147c8185611432565b935061148c81856020860161143d565b80840191505092915050565b60006114a48284611467565b915081905092915050565b7f496e76616c69642050726f6f6600000000000000000000000000000000000000600082015250565b60006114e5600d83610c32565b91506114f0826114af565b602082019050919050565b60006020820190508181036000830152611514816114d8565b9050919050565b50565b600061152b600083611432565b91506115368261151b565b600082019050919050565b600061154c8261151e565b9150819050919050565b7f53656e64696e67206572726f7200000000000000000000000000000000000000600082015250565b600061158c600d83610c32565b915061159782611556565b602082019050919050565b600060208201905081810360008301526115bb8161157f565b9050919050565b600073ffffffffffffffffffffffffffffffffffffffff82169050919050565b6000819050919050565b60006116076116026115fd846115c2565b6115e2565b6115c2565b9050919050565b6000611619826115ec565b9050919050565b600061162b8261160e565b9050919050565b61163b81611620565b82525050565b60006040820190506116566000830185611632565b6116636020830184610a8b565b9392505050565b7f5265656e7472616e637947756172643a207265656e7472616e742063616c6c00600082015250565b60006116a0601f83610c32565b91506116ab8261166a565b602082019050919050565b600060208201905081810360008301526116cf81611693565b905091905056fea2646970667358221220eecc5560ff6e3087f5ccec29c1aab9e2d145715dca94764899dd88cf16ad6f8064736f6c63430008110033",
  "devdoc": {
    "kind": "dev",
    "methods": {},
    "version": 1
  },
  "userdoc": {
    "kind": "user",
    "methods": {},
    "version": 1
  },
  "storageLayout": {
    "storage": [
      {
        "astId": 210,
        "contract": "contracts/Tornado.sol:Tornado",
        "label": "_status",
        "offset": 0,
        "slot": "0",
        "type": "t_uint256"
      },
      {
        "astId": 273,
        "contract": "contracts/Tornado.sol:Tornado",
        "label": "verifier",
        "offset": 0,
        "slot": "1",
        "type": "t_address"
      },
      {
        "astId": 276,
        "contract": "contracts/Tornado.sol:Tornado",
        "label": "hasher",
        "offset": 0,
        "slot": "2",
        "type": "t_contract(Hasher)199"
      },
      {
        "astId": 279,
        "contract": "contracts/Tornado.sol:Tornado",
        "label": "treeLevel",
        "offset": 20,
        "slot": "2",
        "type": "t_uint8"
      },
      {
        "astId": 282,
        "contract": "contracts/Tornado.sol:Tornado",
        "label": "denomination",
        "offset": 0,
        "slot": "3",
        "type": "t_uint256"
      },
      {
        "astId": 285,
        "contract": "contracts/Tornado.sol:Tornado",
        "label": "nextLeafIdx",
        "offset": 0,
        "slot": "4",
        "type": "t_uint256"
      },
      {
        "astId": 289,
        "contract": "contracts/Tornado.sol:Tornado",
        "label": "roots",
        "offset": 0,
        "slot": "5",
        "type": "t_mapping(t_uint256,t_bool)"
      },
      {
        "astId": 293,
        "contract": "contracts/Tornado.sol:Tornado",
        "label": "lastLevelHash",
        "offset": 0,
        "slot": "6",
        "type": "t_mapping(t_uint8,t_uint256)"
      },
      {
        "astId": 297,
        "contract": "contracts/Tornado.sol:Tornado",
        "label": "nulliferHashes",
        "offset": 0,
        "slot": "7",
        "type": "t_mapping(t_uint256,t_bool)"
      },
      {
        "astId": 301,
        "contract": "contracts/Tornado.sol:Tornado",
        "label": "commitments",
        "offset": 0,
        "slot": "8",
        "type": "t_mapping(t_uint256,t_bool)"
      },
      {
        "astId": 316,
        "contract": "contracts/Tornado.sol:Tornado",
        "label": "levelDefaults",
        "offset": 0,
        "slot": "9",
        "type": "t_array(t_uint256)10_storage"
      }
    ],
    "types": {
      "t_address": {
        "encoding": "inplace",
        "label": "address",
        "numberOfBytes": "20"
      },
      "t_array(t_uint256)10_storage": {
        "base": "t_uint256",
        "encoding": "inplace",
        "label": "uint256[10]",
        "numberOfBytes": "320"
      },
      "t_bool": {
        "encoding": "inplace",
        "label": "bool",
        "numberOfBytes": "1"
      },
      "t_contract(Hasher)199": {
        "encoding": "inplace",
        "label": "contract Hasher",
        "numberOfBytes": "20"
      },
      "t_mapping(t_uint256,t_bool)": {
        "encoding": "mapping",
        "key": "t_uint256",
        "label": "mapping(uint256 => bool)",
        "numberOfBytes": "32",
        "value": "t_bool"
      },
      "t_mapping(t_uint8,t_uint256)": {
        "encoding": "mapping",
        "key": "t_uint8",
        "label": "mapping(uint8 => uint256)",
        "numberOfBytes": "32",
        "value": "t_uint256"
      },
      "t_uint256": {
        "encoding": "inplace",
        "label": "uint256",
        "numberOfBytes": "32"
      },
      "t_uint8": {
        "encoding": "inplace",
        "label": "uint8",
        "numberOfBytes": "1"
      }
    }
  }
}