{
  "address": "0xD55Ae587293bD81f27F2B4F4088Bf28FDFd9CF31",
  "abi": [
    {
      "inputs": [
        {
          "internalType": "uint256[2]",
          "name": "_ins",
          "type": "uint256[2]"
        },
        {
          "internalType": "uint256",
          "name": "_k",
          "type": "uint256"
        }
      ],
      "name": "MiMC5Sponge",
      "outputs": [
        {
          "internalType": "uint256",
          "name": "h",
          "type": "uint256"
        }
      ],
      "stateMutability": "view",
      "type": "function"
    }
  ],
  "transactionHash": "0xc4f6b19fafcdcb764eac35bfc0d8e7b59a830d10301367d79e0bdd9d795ac386",
  "args": [],
  "numDeployments": 1,
  "solcInputHash": "6900fa3f4eee3f6ebe5453a8244fc712",
  "bytecode": "0x7f30644e72e131a029b85045b68181585d2833e84879b9709143e1f593f0000001600090815561030060405260809081527f391768a085a953882c2200e315dc6b6353e4791466d524980f97b786716ef44c60a0527f9d4f50cb64b2c7a8f7b2c17065bac3a4ef451cd9718db14693cc75cbb863089060c0527f71504526d8cd57565fca39e86feeb52100fecb23f9b81ab0ac066aef68328e3e60e0527f935b8800cf73aa9b083a4bdbfea0f4efeb5e0b1bb927455b4bc8a4bcc58e9a66610100527f65731fa0feccca6cba08c176f5443dbaea0de6ae20993a97f6b709785897d20f610120527f1fd61c6b69084af504ea1fa012821bb4af507d64efd9934b9bbf36705290f12d610140527f40f253aa05d71624fe6759a1f5edd323d110996b3fcfba07abdf171a5f9de399610160527f1e70e5f07fda6b0119e5c8f11aa869db08e948e2bc688cb4db0b4ee543c46f3e610180527f790b360b1e8223e3834cfd88dd07eb3e4fb59e8bd83626fbdc9583d8877a15af6101a0527f37a0de4d2c56628d40f1638628efb49c4c741fe881cf8a6e865ec71688b4487a6101c0527fc7cb9fe85afe2450c4da8a32983cc0e6070d253c86e59bfd1fd24fcaa91c658a6101e0527fcb6e8649b6a56e9277be3bf1d943244b79048284cdd78743a74863e58b9e1987610200527f594448aa40d994274590a8a5c4ab87b374317b4bbc013841ce844e4bf19805bb610220527f01ff873d84b64b0d73eddd73625d1b5686a3d1f31db8d0086b3101bdb5a6f7ff610240527ff810e1e9fad9cdb55d70a243eccd090c85f836ce991bb2190b0f0aab32d8e0b3610260527ffdcf72e9d11d20a02478305a7183c50ed3ddde3c9e80b2bf5efdaca8f87d651d610280527ff66144aed21cec88adbe8c8f6cd05ee5407d8c06d39607d62584909149d3403c6102a0527f8fa16e2ad5a7a87d70003c61c1d2a08fc9ab669e6b95350f28e01a15745c27456102c0527fd99c9018257d4ec8c901b111feb6857c4219c3340ac68bf54ce4448a530375f96102e0526102fa90600190601461030d565b5034801561030757600080fd5b50610360565b826014810192821561033b579160200282015b8281111561033b578251825591602001919060010190610320565b5061034792915061034b565b5090565b5b80821115610347576000815560010161034c565b6102c78061036f6000396000f3fe608060405234801561001057600080fd5b506004361061002b5760003560e01c8063d622e5a414610030575b600080fd5b61004361003e3660046101b3565b610055565b60405190815260200160405180910390f35b60008080805b60028160ff1610156100b7576000548061007757610077610238565b868260ff166002811061008c5761008c61024e565b6020020151840892506100a08383876100c1565b9093509150806100af81610264565b91505061005b565b5090949350505050565b6000806014858583808080805b8760ff168160ff16101561018a57600054806100ec576100ec610238565b8b870894506000548061010157610101610238565b60018260ff16601481106101175761011761024e565b0154860894506000548061012d5761012d610238565b85860993506000548061014257610142610238565b84850992506000548061015757610157610238565b85840994508591506000548061016f5761016f610238565b8588089550819650808061018290610264565b9150506100ce565b50949b939a509298505050505050505050565b634e487b7160e01b600052604160045260246000fd5b600080606083850312156101c657600080fd5b83601f8401126101d557600080fd5b6040516040810181811067ffffffffffffffff821117156101f8576101f861019d565b806040525080604085018681111561020f57600080fd5b855b81811015610229578035835260209283019201610211565b50919691359550909350505050565b634e487b7160e01b600052601260045260246000fd5b634e487b7160e01b600052603260045260246000fd5b600060ff821660ff810361028857634e487b7160e01b600052601160045260246000fd5b6001019291505056fea2646970667358221220d4bdd982158aaeb000c0532db64cf9688a5feb353ea0d1aaec48d4ef3e8e74a064736f6c63430008110033",
  "devdoc": {
    "kind": "dev",
    "methods": {},
    "version": 1
  },
  "userdoc": {
    "kind": "user",
    "methods": {},
    "version": 1
  },
  "storageLayout": {
    "storage": [
      {
        "astId": 4,
        "contract": "contracts/MiMCSponge.sol:Hasher",
        "label": "p",
        "offset": 0,
        "slot": "0",
        "type": "t_uint256"
      },
      {
        "astId": 29,
        "contract": "contracts/MiMCSponge.sol:Hasher",
        "label": "c",
        "offset": 0,
        "slot": "1",
        "type": "t_array(t_uint256)20_storage"
      }
    ],
    "types": {
      "t_array(t_uint256)20_storage": {
        "base": "t_uint256",
        "encoding": "inplace",
        "label": "uint256[20]",
        "numberOfBytes": "640"
      },
      "t_uint256": {
        "encoding": "inplace",
        "label": "uint256",
        "numberOfBytes": "32"
      }
    }
  }
}