{
  "address": "0x2cbfA10B52683715Ca8bEa8a7416A26D00C307DB",
  "abi": [
    {
      "inputs": [
        {
          "internalType": "address",
          "name": "_hasher",
          "type": "address"
        }
      ],
      "stateMutability": "nonpayable",
      "type": "constructor"
    },
    {
      "anonymous": false,
      "inputs": [
        {
          "indexed": false,
          "internalType": "uint256",
          "name": "root",
          "type": "uint256"
        },
        {
          "indexed": false,
          "internalType": "uint256[10]",
          "name": "hashingPairings",
          "type": "uint256[10]"
        },
        {
          "indexed": false,
          "internalType": "uint8[10]",
          "name": "pairDirection",
          "type": "uint8[10]"
        }
      ],
      "name": "Deposit",
      "type": "event"
    },
    {
      "anonymous": false,
      "inputs": [
        {
          "indexed": false,
          "internalType": "address",
          "name": "to",
          "type": "address"
        },
        {
          "indexed": false,
          "internalType": "uint256",
          "name": "nullifierhash",
          "type": "uint256"
        }
      ],
      "name": "Withdrawal",
      "type": "event"
    },
    {
      "inputs": [
        {
          "internalType": "uint256",
          "name": "",
          "type": "uint256"
        }
      ],
      "name": "commitments",
      "outputs": [
        {
          "internalType": "bool",
          "name": "",
          "type": "bool"
        }
      ],
      "stateMutability": "view",
      "type": "function"
    },
    {
      "inputs": [],
      "name": "denomination",
      "outputs": [
        {
          "internalType": "uint256",
          "name": "",
          "type": "uint256"
        }
      ],
      "stateMutability": "view",
      "type": "function"
    },
    {
      "inputs": [
        {
          "internalType": "uint256",
          "name": "_commitment",
          "type": "uint256"
        }
      ],
      "name": "deposit",
      "outputs": [],
      "stateMutability": "payable",
      "type": "function"
    },
    {
      "inputs": [],
      "name": "nextLeafIdx",
      "outputs": [
        {
          "internalType": "uint256",
          "name": "",
          "type": "uint256"
        }
      ],
      "stateMutability": "view",
      "type": "function"
    },
    {
      "inputs": [
        {
          "internalType": "uint256",
          "name": "",
          "type": "uint256"
        }
      ],
      "name": "nulliferHashes",
      "outputs": [
        {
          "internalType": "bool",
          "name": "",
          "type": "bool"
        }
      ],
      "stateMutability": "view",
      "type": "function"
    },
    {
      "inputs": [
        {
          "internalType": "uint256",
          "name": "",
          "type": "uint256"
        }
      ],
      "name": "roots",
      "outputs": [
        {
          "internalType": "bool",
          "name": "",
          "type": "bool"
        }
      ],
      "stateMutability": "view",
      "type": "function"
    },
    {
      "inputs": [],
      "name": "treeLevel",
      "outputs": [
        {
          "internalType": "uint8",
          "name": "",
          "type": "uint8"
        }
      ],
      "stateMutability": "view",
      "type": "function"
    }
  ],
  "transactionHash": "0x3a6865fed60ff6791420ae048858c8290dd5579ec13f14b1468c318ff9b5380c",
  "args": [
    "0xD55Ae587293bD81f27F2B4F4088Bf28FDFd9CF31"
  ],
  "numDeployments": 1,
  "solcInputHash": "6900fa3f4eee3f6ebe5453a8244fc712",
  "bytecode": "0x6002805460ff60a01b1916600560a11b17905566038d7ea4c6800060035560006004556101c06040527f33418cd1669b4e7f4bf473ec2db9a489b3d6f9f11b91d0b3b6004432ab53d60b60809081527f350ffb7c45ccf8940c163b192252495b614def57272b6f8d9a53a5b3e44ef8bd60a0527fc8acb7af851baf91a82b1ad46b01ac506ce80387170890dea377d21e8520258460c0527f5171d273154b2764aa5903210e16bd1899b18648d1358d41887a113227e9acc560e0527f986c06cb04d613f57cf7a1da410e0f22c794e1ec1ae125898cfc9662a5e5be59610100527f6eb9a05106eff3031621027680204b2e9326b0e5191bd62f3cd7bf7f6d94d027610120527fa1cbc8691493398c061f547b4882edbb6a38ce1730c8a2605e9d8138d4ad1226610140527f850aa72f3d8bc65181e9c29d76f7614e2f939ade9442abac29fc8a0329deeffd610160527fe9c6f678752dbfc89028bf8b9b1cce608b34b742b75fbae878ec2c6ae803dc1e610180527fa9e22c2e1f4531bc4389032bb472b97c25a7298d27ba4fefd75439a1be46f77f6101a0526101a690600990600a6101fc565b503480156101b357600080fd5b50604051610a5a380380610a5a8339810160408190526101d29161024f565b6001600055600280546001600160a01b0319166001600160a01b039290921691909117905561027f565b82600a810192821561022a579160200282015b8281111561022a57825182559160200191906001019061020f565b5061023692915061023a565b5090565b5b80821115610236576000815560010161023b565b60006020828403121561026157600080fd5b81516001600160a01b038116811461027857600080fd5b9392505050565b6107cc8061028e6000396000f3fe6080604052600436106100705760003560e01c8063b6b55f251161004e578063b6b55f25146100f4578063b8e7956414610109578063c2b40ae41461013c578063dee98e511461016c57600080fd5b806345e0523f1461007557806349ce89971461009e5780638bca6d16146100de575b600080fd5b34801561008157600080fd5b5061008b60045481565b6040519081526020015b60405180910390f35b3480156100aa57600080fd5b506100ce6100b936600461059a565b60086020526000908152604090205460ff1681565b6040519015158152602001610095565b3480156100ea57600080fd5b5061008b60035481565b61010761010236600461059a565b61019c565b005b34801561011557600080fd5b5060025461012a90600160a01b900460ff1681565b60405160ff9091168152602001610095565b34801561014857600080fd5b506100ce61015736600461059a565b60056020526000908152604090205460ff1681565b34801561017857600080fd5b506100ce61018736600461059a565b60076020526000908152604090205460ff1681565b6101a46104fd565b60035434146101fa5760405162461bcd60e51b815260206004820152601d60248201527f496e636f72726563742064656e6f6d696e6174696f6e206f662045544800000060448201526064015b60405180910390fd5b60008181526008602052604090205460ff161561024c5760405162461bcd60e51b815260206004820152601060248201526f223ab83634b1b0ba329030b1ba34b7b760811b60448201526064016101f1565b600260149054906101000a900460ff16600261026891906106af565b600454106102c35760405162461bcd60e51b815260206004820152602260248201527f43616e6e6f74206465706f736974206d65726b6c6520747265652069732066756044820152611b1b60f21b60648201526084016101f1565b60006102cd61055d565b6102d561055d565b600454600080866102e461057c565b60005b600254600160a01b900460ff16811015610495576103066002876106db565b60000361037157829450600981600a8110610323576103236106ef565b0154935060008782600a811061033b5761033b6106ef565b6020020152600981600a8110610353576103536106ef565b01548882600a8110610367576103676106ef565b60200201526103d1565b829350600981600a8110610387576103876106ef565b0154945060018782600a811061039f5761039f6106ef565b6020020152600981600a81106103b7576103b76106ef565b01548882600a81106103cb576103cb6106ef565b60200201525b848260006020020152838260016020020181815250506000600260009054906101000a90046001600160a01b03166001600160a01b031663d622e5a4620249f0858e6040518463ffffffff1660e01b8152600401610430929190610705565b6020604051808303818786fa15801561044d573d6000803e3d6000fd5b50505050506040513d601f19601f82011682018060405250810190610472919061073d565b905061047f600288610756565b965092508061048d8161076a565b9150506102e7565b506000828152600560205260408120805460ff1916600190811790915560048054949a508a94919290916104ca908490610783565b9091555050506000888152600860205260409020805460ff19166001179055506104fa9550610556945050505050565b50565b60026000540361054f5760405162461bcd60e51b815260206004820152601f60248201527f5265656e7472616e637947756172643a207265656e7472616e742063616c6c0060448201526064016101f1565b6002600055565b6001600055565b604051806101400160405280600a906020820280368337509192915050565b60405180604001604052806002906020820280368337509192915050565b6000602082840312156105ac57600080fd5b5035919050565b634e487b7160e01b600052601160045260246000fd5b600181815b808511156106045781600019048211156105ea576105ea6105b3565b808516156105f757918102915b93841c93908002906105ce565b509250929050565b60008261061b575060016106a9565b81610628575060006106a9565b816001811461063e576002811461064857610664565b60019150506106a9565b60ff841115610659576106596105b3565b50506001821b6106a9565b5060208310610133831016604e8410600b8410161715610687575081810a6106a9565b61069183836105c9565b80600019048211156106a5576106a56105b3565b0290505b92915050565b60006106be60ff84168361060c565b9392505050565b634e487b7160e01b600052601260045260246000fd5b6000826106ea576106ea6106c5565b500690565b634e487b7160e01b600052603260045260246000fd5b60608101818460005b600281101561072d57815183526020928301929091019060010161070e565b5050508260408301529392505050565b60006020828403121561074f57600080fd5b5051919050565b600082610765576107656106c5565b500490565b60006001820161077c5761077c6105b3565b5060010190565b808201808211156106a9576106a96105b356fea2646970667358221220de0f8271bafe6a6a31b5f4fcaca266634c765991d5b5c0d27c6580abdd30dbfd64736f6c63430008110033",
  "devdoc": {
    "kind": "dev",
    "methods": {},
    "version": 1
  },
  "userdoc": {
    "kind": "user",
    "methods": {},
    "version": 1
  },
  "storageLayout": {
    "storage": [
      {
        "astId": 210,
        "contract": "contracts/Tornado.sol:Tornado",
        "label": "_status",
        "offset": 0,
        "slot": "0",
        "type": "t_uint256"
      },
      {
        "astId": 272,
        "contract": "contracts/Tornado.sol:Tornado",
        "label": "verifier",
        "offset": 0,
        "slot": "1",
        "type": "t_address"
      },
      {
        "astId": 275,
        "contract": "contracts/Tornado.sol:Tornado",
        "label": "hasher",
        "offset": 0,
        "slot": "2",
        "type": "t_contract(Hasher)199"
      },
      {
        "astId": 278,
        "contract": "contracts/Tornado.sol:Tornado",
        "label": "treeLevel",
        "offset": 20,
        "slot": "2",
        "type": "t_uint8"
      },
      {
        "astId": 281,
        "contract": "contracts/Tornado.sol:Tornado",
        "label": "denomination",
        "offset": 0,
        "slot": "3",
        "type": "t_uint256"
      },
      {
        "astId": 284,
        "contract": "contracts/Tornado.sol:Tornado",
        "label": "nextLeafIdx",
        "offset": 0,
        "slot": "4",
        "type": "t_uint256"
      },
      {
        "astId": 288,
        "contract": "contracts/Tornado.sol:Tornado",
        "label": "roots",
        "offset": 0,
        "slot": "5",
        "type": "t_mapping(t_uint256,t_bool)"
      },
      {
        "astId": 292,
        "contract": "contracts/Tornado.sol:Tornado",
        "label": "lastLevelHash",
        "offset": 0,
        "slot": "6",
        "type": "t_mapping(t_uint8,t_uint256)"
      },
      {
        "astId": 296,
        "contract": "contracts/Tornado.sol:Tornado",
        "label": "nulliferHashes",
        "offset": 0,
        "slot": "7",
        "type": "t_mapping(t_uint256,t_bool)"
      },
      {
        "astId": 300,
        "contract": "contracts/Tornado.sol:Tornado",
        "label": "commitments",
        "offset": 0,
        "slot": "8",
        "type": "t_mapping(t_uint256,t_bool)"
      },
      {
        "astId": 315,
        "contract": "contracts/Tornado.sol:Tornado",
        "label": "levelDefaults",
        "offset": 0,
        "slot": "9",
        "type": "t_array(t_uint256)10_storage"
      }
    ],
    "types": {
      "t_address": {
        "encoding": "inplace",
        "label": "address",
        "numberOfBytes": "20"
      },
      "t_array(t_uint256)10_storage": {
        "base": "t_uint256",
        "encoding": "inplace",
        "label": "uint256[10]",
        "numberOfBytes": "320"
      },
      "t_bool": {
        "encoding": "inplace",
        "label": "bool",
        "numberOfBytes": "1"
      },
      "t_contract(Hasher)199": {
        "encoding": "inplace",
        "label": "contract Hasher",
        "numberOfBytes": "20"
      },
      "t_mapping(t_uint256,t_bool)": {
        "encoding": "mapping",
        "key": "t_uint256",
        "label": "mapping(uint256 => bool)",
        "numberOfBytes": "32",
        "value": "t_bool"
      },
      "t_mapping(t_uint8,t_uint256)": {
        "encoding": "mapping",
        "key": "t_uint8",
        "label": "mapping(uint8 => uint256)",
        "numberOfBytes": "32",
        "value": "t_uint256"
      },
      "t_uint256": {
        "encoding": "inplace",
        "label": "uint256",
        "numberOfBytes": "32"
      },
      "t_uint8": {
        "encoding": "inplace",
        "label": "uint8",
        "numberOfBytes": "1"
      }
    }
  }
}